:020000040800F2
:1000000000000220DD0500087D1500087F150008AE
:100010008115000883150008851500080000000000
:100020000000000000000000000000004142000845
:100030008715000800000000D1420008593B000865
:100040002D0600082D0600082D0600082D060008C4
:100050002D0600082D0600082D0600082D060008B4
:100060002D0600082D060008891500082D06000839
:100070002D0600082D0600082D0600082D06000894
:100080002D0600082D0600082D0600082D06000884
:100090002D0600082D0600082D0600088F15000803
:1000A0002D0600082D0600082D0600082D06000864
:1000B0002D0600082D0600082D06000895150008DD
:1000C0002D0600082D0600082D0600082D06000844
:1000D0002D0600082D0600082D0600082D06000834
:1000E0002D0600082D0600082D0600082D06000824
:1000F0002D0600082D0600082D0600082D06000814
:10010000000000002D0600082D0600082D0600083E
:100110000000000000000000A11500082D060008E6
:100120002D0600082D0600082D0600082D060008E3
:100130002D0600082D0600082D0600082D060008D3
:100140002D0600082D0600082D0600082D060008C3
:100150002D0600082D0600082D0600082D060008B3
:100160002D0600082D060008000000000000000019
:10017000000000000000000000000000000000007F
:100180002D0600082D0600080000000000000000F9
:100190002D0600082D0600080000000000000000E9
:1001A000000000000000000000000000000000004F
:1001B0002D06000800000000000000002D060008C9
:0401C0002D06000800
:1001D00010B5054C237833B9044B13B10448AFF381
:1001E00000800123237010BD780000200000000073
:1001F00084C1000808B5034B1BB103490348AFF3A2
:10020000008008BD000000007C00002084C10008C0
:1002100001F0FF01102A2BDB10F0070F08D010F8B7
:10022000013B013A8B422DD010F0070F42B3F6D1BB
:10023000F0B441EA012141EA014122F007047FF0D4
:1002400000070023F0E80256083C85EA010586EA2B
:10025000010685FA47F5A3FA87F586FA47F6A5FA67
:1002600087F68EB9EED1F0BC01F0FF0102F0070273
:1002700032B110F8013B013A83EA010313B1F8D11E
:100280000020704701387047002D06BF35460338FF
:10029000073815F0010F07D1013015F4807F02BF38
:1002A000013015F4C03F0130F0BC0138704700BF89
:1002B00053B94AB9002908BF00281CBF4FF0FF31CD
:1002C0004FF0FF3000F088B9ADF1080C6DE904CEB5
:1002D00000F006F8DDF804E0DDE9022304B0704721
:1002E0002DE9F047089D8E4604468846002B4AD1EA
:1002F0008A42174662D9B2FA82F64EB1C6F120039D
:1003000001FA06F820FA03F3B74043EA0808B440BC
:100310004FEA174E1FFA87FCB8FBFEF1230C0EFBC9
:10032000118843EA084301FB0CF29A4209D9FB18F1
:1003300001F1FF3080F0EA809A4240F2E780023912
:100340003B449A1AA3B2B2FBFEF00EFB102243EA22
:10035000024300FB0CFC9C4509D9FB1800F1FF325D
:1003600080F0D6809C4540F2D3803B44023840EA7E
:100370000140A3EB0C0300211DB1F3400022C5E9AD
:100380000032BDE8F0878B4205D90DB1C5E9000107
:1003900000210846F5E7B3FA83F1002946D17345F9
:1003A00002D3824200F20581841A6EEB030201201F
:1003B0009046002DE5D0C5E90048E2E7002A00F0AC
:1003C0009080B2FA82F6002E40F0A4808A1A030CC4
:1003D0004FEA174E80B2BCB20121B2FBFEFC0EFB0D
:1003E0001C2243EA024304FB0CF29A4207D9FB1891
:1003F0000CF1FF3802D29A4200F2E080C4469B1A08
:10040000B3FBFEF20EFB123340EA034302FB04F49B
:100410009C4207D9FB1802F1FF3002D29C4200F245
:10042000CA8002461B1B42EA0C40A5E7C1F1200628
:100430008B4022FA06F71F430EFA01F420FA06F366
:100440002EFA06FE4FEA1749234300FA01F81FFA75
:1004500087FCBEFBF9F01C0C09FB10EE44EA0E44CD
:1004600000FB0CFEA64502FA01F209D93C1900F185
:10047000FF3A80F09C80A64540F2998002383C44C7
:10048000A4EB0E041FFA83FEB4FBF9F309FB13443B
:100490004EEA044403FB0CFCA44508D93C1903F1C3
:1004A000FF3E80F08280A4457FD9023B3C4443EA72
:1004B0000040A4EB0C04A0FB02EC64457346E1464B
:1004C00062D35FD05DB1B8EB030264EB090404FAB8
:1004D00006F622FA01F31E43CC40C5E90064002170
:1004E0004FE7B1FBF2FC010C41EA0E4180B240EA59
:1004F00001423B4638463C46B846BE462026B1FB44
:10050000F7F1A2EB080241EA0C4166E7014618E761
:1005100010462CE7C6F120022EFA02F3B740B14094
:1005200020FA02F24FEA174E0A43B3FBFEF8BCB2C0
:100530000EFB1833110C41EA034108FB04F9B040EB
:1005400089454FEA104380B23ED9791808F1FF3C43
:1005500001D289451FD8A1EB0901B1FBFEF909FBC6
:1005600004F80EFB191192B242EA0142424529D227
:10057000BA1809F1FF31C4D24245C2D2A9F1020131
:100580003A44BEE7F0459DD2BEEB02036CEB070C8C
:100590000138E14696E7A7EB09094944A8F1020CA6
:1005A000B1FBFEF909FB04F8DBE773467FE7504631
:1005B00066E70846FDE63B44023A33E7ACF1020C3D
:1005C0003B441CE749469CE7A1EB0901C446B1FB4B
:1005D000FEF909FB04F8C4E7704700BFDFF834D028
:1005E000002103E00C4B5B58435004310B480C4B8B
:1005F00042189A42F6D30B4A02E0002342F8043B29
:10060000094B9A42F9D301F0E3F90BF04DF800F0F1
:100610008FFE70470000022070CD0008000000200F
:100620007800002078000020B0940020FEE700F061
:10063000C1BB40687047416070474FF0E022D2F87C
:10064000FC3D43F08073C2F8FC3DA2F550421368B4
:1006500043F0010313607047521A02EB5302B2FBDE
:10066000F3F07047014B5868704700BF001000E07E
:10067000704710B50C2104460AF046FD204610BD17
:10068000036810B51B69044631B19847A2686368D6
:100690009B1A0344636010BD9847A060FBE7704756
:1006A000704710B5042104460AF02EFD204610BD07
:1006B000064B187810B538B1054C24680C60054914
:1006C0000968116000221A7010BD00BF940000205C
:1006D0009C000020980000207FB5164D164C4FF06E
:1006E000FF3603238DF80F300DF10F020096012322
:1006F0007021284601F0F0FC224600960423702168
:10070000284601F0C3FD237862781B0203F470636E
:10071000C3F1EF039B1A094A1360A378E2781B0226
:1007200003F470631344064A1360064B01221A70E7
:1007300004B070BD8C020020A000002098000020B2
:100740009C00002094000020032821D8DFE800F05E
:10075000020B12190F4B1A68B2FA82F252090121E8
:100760000D4801F0D3BA0B4B5A68B2FA82F2520923
:100770000221F5E7074B9A68B2FA82F25209082182
:10078000EEE7044BDA68B2FA82F252091021E7E789
:10079000704700BFA400002000100240032821D8A9
:1007A000DFE800F0020B12190F4B1A68003A18BF6D
:1007B000012201210D4801F0A9BA0B4B5A68003AF9
:1007C00018BF01220221F5E7074B9A68003A18BFCB
:1007D00001220821EEE7044BDA68003A18BF012233
:1007E0001021E7E7704700BFA4000020001002407E
:1007F00003280DD8DFE800F00206080A01210548A9
:1008000001F089BA0221FAE70821F8E71021F6E79A
:10081000704700BF0010024008B5032811D8DFE878
:1008200000F0020A0C0E0121074801F069FA431E8C
:100830005842584108BD0221F6E70821F4E710218B
:10084000F2E70020F3E700BF0010024070B5084D4A
:1008500000240126E0B2FFF7DFFF18B12B68012B5F
:1008600018BF2E600134052C05F10405F2D170BDCE
:10087000A4000020012380F8781080F879307047B8
:100880007047002070470000034B4164003918BFD7
:1008900001211970704700BF779100207047002038
:1008A0007047836B0BB10846184770474FF6FF70CF
:1008B0007047406803689B691847704770477047E6
:1008C00070470000014B1868704700BFC00000204F
:1008D00070477047014B196000F0DABAC000002081
:1008E00005F091BA00F0F2BA00F0F2BA024B002221
:1008F0001A7000F0E7BA00BFC500002010B504462A
:1009000000F0E2FA94F84B3013B1024B01221A7056
:1009100010BD00BFC500002010B5044606F066F803
:1009200023682046D3F8BC30BDE81040184710B506
:10093000842104460AF0E8FB204610BD10B590F86B
:10094000341090F878400C4B8C421A7809D03AB9A0
:100950000A4A0B491488088810800C8001221A70FA
:1009600010BD002AFCD0054A05491488088810806B
:100970000C800022F3E700BF709100206C910020F2
:100980006E91002070B50D46194635B9094B0A4ADB
:100990000A4840F2FF210AF0E5FBC0E90F52084B7C
:1009A000003A18BF01221A700368BDE87040D3F8FE
:1009B0009030184714C200084CC200089AC20008C0
:1009C0007691002008B5094B1B888B4203D8084B51
:1009D0001B88934205D9074B074A0848A3210AF010
:1009E000C1FB074B1980074B1A8008BD6C91002092
:1009F0006E910020DFC2000842C300089AC20008BE
:100A00007291002074910020034690F87A0018B18A
:100A1000586803681B68184770470000F0B500224B
:100A20008FB04FF40061354801F070F9012001F0FA
:100A300009F801224FF40061304801F067F978208D
:100A400001F000F83A2000F04BFA052000F042FADD
:100A5000212000F045FA2A4B6A4603F11806154694
:100A600018685968144603C40833B3422246F7D1C4
:100A70001868244B206007AA03F118071446186869
:100A80005968164603C60833BB423246F7D1186888
:100A90003060E02000F024FA002635F8020B013621
:100AA00000F018FA0E2EF8D1E12000F019FA002516
:100AB00034F8020B013500F00DFA0E2DF8D12C2080
:100AC00000F00EFA4FF46144002000F003FA013CFC
:100AD000FAD1292000F004FA112000F001FA3520A3
:100AE00000F0FEF9204600F0F5F907480122202128
:100AF0000FB0BDE8F04001F009B900BF000C0240A2
:100B00009CC10008B8C100080014024038B5044672
:100B1000084DFFF783FF204600F0BCF9002384F85E
:100B20004A302846FFF789FD0123256184F870309B
:100B300038BD00BFB4000020F8B507462A200E4695
:100B40001C46154600F0CCF9380A00F0C3F9F8B29B
:100B500000F0C0F978190138C0F30F20013D00F012
:100B6000B9F9E819C0B200F0B5F92B2000F0B8F9D6
:100B7000300A00F0AFF9F0B200F0ACF930190138EA
:100B8000C0F30F2000F0A6F9601E3044C0B2BDE8EB
:100B9000F84000F09FB9000070B5174E336893F825
:100BA0006A20013283F86A20002283F87C2000F05A
:100BB000A1F8124B1B78EBB1114D2B7803F0FF0419
:100BC000C3B930680F4E05F011FF01232B70F023DD
:100BD0001A4621462046FFF7AFFF2C2000F080F98F
:100BE0003368185B023400F075F9B4F5E13FF7D1D2
:100BF00000232B7070BD00BF78910020C50000203D
:100C0000C4000020C0000020102808B5014610D103
:100C10000B4801F075F801284FF0000005D1FFF7EF
:100C200093FDBDE80840FFF7B7BFBDE80840FFF7F8
:100C3000B5BD202803D1BDE80840FFF74DBD08BD74
:100C40000018024008B5044B0146186801B10121A3
:100C500005F0E6FE012008BD78910020034B00223C
:100C60005A609A60024A1A60704700BFB4000020C0
:100C7000DCC10008012108B50022084602F0F6FF99
:100C80000A4B186028B90A4B0A4A28210A480AF078
:100C900069FA00220421012003F087F8074B18604D
:100CA00018B9074B034A2C21F0E708BDCC000020FF
:100CB00085C30008CEC30008FDC30008C80000209B
:100CC0007FC40008024B4FF0FF31186803F018B8DA
:100CD000CC000020014B186803F03EB8CC00002087
:100CE000024B0021186803F00BB800BFCC000020B5
:100CF000FFF7F0BF03480449006800231A4603F0D9
:100D00008FB800BFC80000200000002013B5084CB9
:100D100000231A4601A9206803F0B3F820684FF0B9
:100D2000FF33002201A903F0ACF802B010BD00BFF0
:100D3000C8000020704700207047704770470020AF
:100D40007047704708B5034A034B044822210AF054
:100D500009FA00BFE4C40008C1C4000822C50008A5
:100D600008B5034A034B044827210AF0FBF900BFEA
:100D7000A2C50008C1C4000822C5000810B544215E
:100D800004460AF0C1F9204610BD000038B50446FB
:100D900021460025064B25720C30606065720122E9
:100DA00041F8203B05F076FFE562204638BD00BFE4
:100DB0004CC90008014805F090B800BFD0000020E1
:100DC00070B5244E244C254D254B23603046FFF74B
:100DD000DDFF284608F0AAFD224B2348DC600022F4
:100DE0004FF48071C3E9121220491A86C3E91A121E
:100DF0001F4983F85820C3E91E014FF01411C3F8AE
:100E000080101C491C480B60F021C3E90422C3E98F
:100E10000622C3E90822C3E90A22C3E90E22C3E974
:100E20001022C3E91422C3E917225A6683F87020FE
:100E30005A67C3E901650180104883F834200180B6
:100E40000F4801800F4801800F490A700F4A1A604D
:100E500070BD00BFE00100202402002054010020EA
:100E600004C20008D00000200000010101000001C0
:100E700000043C00789100206C91002072910020C9
:100E80006E910020749100207091002060C80008CD
:100E90007047000070B5044605F00BF823689D6E9E
:100EA00006F0D0FD01462046A84723680449D3F840
:100EB0008C5000232046AC461A46BDE8704060477F
:100EC0000000022004F0DCBF04F0E6BF04F0A1BF84
:100ED00005F023B94FF0C0435880BFF34F8F7047E0
:100EE0004FF0C0431880BFF34F8F7047054808B5D7
:100EF000054B036000F00CFE18B1BDE8084000F09F
:100F000037BA08BD28020020003002400268094BB1
:100F10009A4282B00BD100230193074B1A6B42F423
:100F200080521A631B6B03F480530193019B02B040
:100F3000704700BF003002400038024008B5012071
:100F400002F088FEFBE700000149002004F0BABA75
:100F5000450C000808B5074A0748002102F036FE94
:100F6000064B074A18600021064802F02FFE064B88
:100F7000186008BDB8C900083D0F00083402002001
:100F800094C900082F0600083002002030B5002464
:100F90008FB010252A4621460AA806940AF0DBFAEB
:100FA0001A4804954FF02043036003F58273C0E9AB
:100FB00001344FF48053C0E90A344FF48043C0E950
:100FC0000C344FF400130F220121C0E9103409231F
:100FD000CDE90032CDE9071224230722CDE9023101
:100FE0000992112307AA6946C0E90344C0E90554E0
:100FF000C0E90E44CDE90B53C4614462059302F08D
:10100000A1FB08B100F0B4F90FB030BD3C020020E4
:10101000F0B5194A136887B063BB01240093174BDE
:1010200014609A6B164822439A639B6B0194234089
:10103000022703260C25009301A9009BCDE9027429
:10104000CDE9046500F08AFD4FF680730D480595E3
:1010500001A9CDE90137CDE9034600F07FFD4CF24F
:10106000B3730948059501A9CDE90137CDE90346D8
:1010700000F074FD07B0F0BD3802002000380240D7
:101080000014024000100240000C02402DE9F04123
:101090008CB01422002107A80AF05DFA00244B4B03
:1010A00001941A6B4A4EDFF834814A4F42F0100225
:1010B0001A631A6B02F010020192019A02941A6BE1
:1010C00042F020021A631A6B02F020020292029A86
:1010D00003941A6B42F080021A631A6B02F08002CA
:1010E0000392039A04941A6B42F002021A631A6B79
:1010F00002F002020492049A05941A6B42F008026C
:101100001A631A6B02F008020592059A06941A6B8C
:1011100042F040021A631B6B03F040030693224621
:1011200030461B21069B00F0F1FD2246404620215F
:1011300000F0ECFD224638464FF4006100F0E6FD79
:1011400001251B23CDE9073507A9032330460A9360
:101150002026099400F002FD07A94046CDE9076565
:10116000CDE9094400F0FAFC4FF40063CDE90735FE
:10117000194D07A93846CDE9094400F0EFFC1022CB
:101180004FF4441307A92846CDE90723099400F03A
:10119000E5FC4FF4041307A92846CDE90834079667
:1011A00000F0DCFC224605210A2000F071FC0A2038
:1011B00000F0A0FC22460521172000F069FC172052
:1011C00000F098FC0CB0BDE8F08100BF0038024090
:1011D00000100240000C02400018024000140240BF
:1011E00008B50B480B4A0C4BC0E9002300234FF411
:1011F0008042C0E90233C0E90423C0E90633036238
:1012000000F0C2FE18B1BDE8084000F0B1B808BD5A
:101210008C02002000540040A086010070B50446F6
:1012200088B01422002103A80AF095F92268184B0F
:101230009A422BD1174C184800250195236B43F097
:1012400002032363236B03F002030193C022019B7B
:101250001223CDE9032301260323CDE9056303A966
:101260000423079300F07AFC0295236C43F40013E7
:101270002364236C03F4001302931F202A46314693
:10128000029B00F005FC1F2000F034FC08B070BD8C
:1012900000540040003802400004024030B595B0D0
:1012A0001022002109A80AF056F91422002102A8F0
:1012B0000AF051F900251C4B00951A6C42F080523F
:1012C0001A641B6C03F080530093009B174B01952D
:1012D0001A6842F440421A601B6803F440430193C9
:1012E0000122019B4FF480330224CDE907234FF400
:1012F0008003CDE90D430821C82307A8CDE90F13CA
:10130000CDE91144139402F065F80F23CDE90234BE
:1013100003214FF4805302A8CDE90535049501F06F
:1013200091FF15B030BD00BF003802400070004092
:1013300008B500F05BFBFFF7B1FFFFF7A7FEFFF773
:10134000D5FDFFF723FEFFF74BFF00F013F802F087
:1013500011FCFFF7FFFD02F01FFCFEE70268034BE4
:101360009A4201D100F05CBB704700BF0010004002
:10137000704700000D480E4A08B50023C0E900235D
:1013800004211022C0E902124FF0170C4FF48062C2
:10139000C0E904C2C0E90633036201F0D3FE18B10C
:1013A000BDE80840FFF7E4BF08BD00BFE002002031
:1013B000001000A02DE9F04114228AB0044600215B
:1013C0000DEB02000AF0C7F822682F4B9A4257D162
:1013D0002E4B2F48002401949A6B42F002029A632C
:1013E0009A6B02F002020192019A02941A6B42F087
:1013F00020021A631A6B02F020020292029A0394EE
:101400001A6B42F002021A631A6B02F00202039294
:10141000039A04941A6B42F040021A631B6B03F0A8
:101420004003049302260325049B4FF00908C023C0
:1014300005A9CDE905360A27CDE9085800F08EFB4D
:101440004FF440731248099705A9CDE90536CDE957
:10145000074500F083FB04230E48CDF8248005A93E
:10146000CDE90536CDE9074500F078FB40230A4871
:10147000099705A9CDE90536CDE9074500F06EFBD2
:101480000AB0BDE8F08100BF001000A000380240A3
:1014900000140240000402400018024082B00E4BCB
:1014A00000220092596C41F480415964596C01F456
:1014B0008041009100990192196C41F080511964AA
:1014C0001B6C03F080530193019B0F216FF001000F
:1014D00002B000F0DDBA00BF0038024070B588B03D
:1014E00000230293204B1A6C42F010021A641B6C0A
:1014F00003F010030293054601A903A8029B01F023
:101500004BFF069B4BBB01F037FF184E184B336067
:1015100040F2E733F360174BB0FBF3F3013B73602A
:10152000304600233361B360B36102F05FFA0446D2
:1015300080B9304602F034F9044658B9362000F03C
:10154000D9FA0F2D0DD822462946362000F0A0FAF0
:10155000094B1D60204608B070BD01F00DFF400032
:10156000D3E70124F6E700BF003802402C03002037
:101570000010004040420F000C0000207047FEE7C2
:10158000FEE7FEE7FEE77047102000F0CDBB20200D
:1015900000F0CABB014801F05DB900BF8C02002019
:1015A000014802F03BB900BF2C0300200120704726
:1015B00008B50AF073F8162303604FF0FF3008BD3A
:1015C00008B50AF06BF816230360FEE770B50D4608
:1015D00014460E46731B9C4201DC204670BDAFF3DF
:1015E000008006F8010BF5E770B50D4614460E466F
:1015F000731B9C4201DC204670BD16F8010BAFF353
:101600000080F5E74FF0FF3070474FF400534B6018
:101610000020704701207047002070470A4A116877
:1016200008B5034609B909491160106869460344C1
:101630008B4206D90AF032F80C2303604FF0FF30DA
:1016400008BD1360FCE700BF74030020B0940020C5
:1016500013B5002451B1036801948DF8034001AA29
:101660009C680DF10303A04702B010BD0846FBE7DC
:10167000C0897047008A7047C0887047808870476B
:10168000807A00F07F007047807AC00970470020A0
:10169000704700009FED010A704700BF0000000086
:1016A000044B1B6893F858200AB1D86C00B99868AD
:1016B000704700BF78910020406A7047806A704789
:1016C00070478A880B8810B5D20A4C88C1699BB2D2
:1016D00051F8220043EA0443184410BD10B50446F3
:1016E000BAB1107B68B1537BD27A1B0203F4E0637A
:1016F0001A43236A03EB82031A888A4202D193F9C0
:10170000020010BD05D8013880B204330028F3D19F
:10171000F7E70020F5E710B52C21044609F0F4FCAA
:10172000204610BD30B58BB00446BDF8605008951A
:10173000BDF85C5007959DF8505006959DF84C50AB
:1017400005959DF8485004959DF8445003959DF8E3
:10175000405002959DF83C500195BDF838500095D9
:1017600006F0AAFA064B2360159BE361169B2362E1
:10177000199B63621A9BA36220460BB030BD00BF69
:10178000E4C900087047000030B5164D2C6814F00D
:1017900001048FB0BFF35B8F20D1284609F0B6FC5F
:1017A000E0B13F230993104B0893104B10491148A7
:1017B0000A940122CDE906430423CDE903320A232A
:1017C0000093CDE90B44CDE901440594FFF7AAFF4E
:1017D000094809F0E5FC284609F0A4FC05480FB0CB
:1017E00030BD00BF7803002034CD000840CD000894
:1017F00004CD00087C030020851700087047000016
:1018000030B5164D2C6814F001048FB0BFF35B8F18
:1018100020D1284609F07AFCE0B13F230993104B10
:101820000893104B104911480A940122CDE9064350
:101830000423CDE9033214230093CDE90B44CDE911
:1018400001440594FFF76EFF094809F0A9FC2846FA
:1018500009F068FC05480FB030BD00BFA8030020A8
:1018600038CD000844CD000814CD0008AC0300209A
:10187000FD1700087047000030B5164D2C6814F0B5
:1018800001048FB0BFF35B8F20D1284609F03EFCE6
:10189000E0B13F230993104B0893104B10491148B6
:1018A0000A940122CDE906430423CDE9033228231B
:1018B0000093CDE90B44CDE901440594FFF732FFD5
:1018C000094809F06DFC284609F02CFC05480FB0CA
:1018D00030BD00BFD80300203CCD000848CD000833
:1018E00024CD0008DC030020751800080020704794
:1018F000002070470EB403B503AB002153F8042B4E
:10190000019306F0AFF802B05DF804EB03B0704746
:101910000CB407B504AB53F8042B019306F0A2F8FE
:1019200003B05DF804EB02B070470000436C10B5E3
:10193000044673B3038F2BB9184B194AC5211948B4
:1019400009F010FCC38E00EB43035B8C0BB306F075
:1019500050FF238F012B03D8134B144ACB21EEE702
:10196000E28E531C9BB2092B194688BFA3F10A01D2
:1019700004EB410140F63F10498C814209D10A2B0A
:1019800004EB420228BF002304EB4303508C58842D
:1019900051842046BDE8104006F02EBEF9C500086F
:1019A00002C60008ADC60008F7C6000805C7000853
:1019B00006F0E9BD10B5FFF723FF044C2060FFF7E8
:1019C0005BFF6060FFF7E0FEA06010BD0804002030
:1019D000054BD3F8882042F47002C3F888204FF0FA
:1019E00000629A60704700BF00ED00E008B50B4B45
:1019F0001A6842F400721A601A6842F480621A602F
:101A00001A6842F480721A60032000F02FF8002058
:101A1000FFF764FDFFF742FD002008BD003C0240D7
:101A2000034A044B11681B780B441360704700BFD6
:101A30001404002008000020014B1868704700BF04
:101A40001404002038B50446FFF7F6FF631C1CBFE2
:101A5000054B1B78054618BFE418FFF7EDFF431B45
:101A6000A342FAD338BD00BF080000200749CA6866
:101A700022F4E0620302120403F4E063120C134345
:101A800043F0BF6343F40033CB60704700ED00E0E8
:101A9000164B30B5DC68C4F30224C4F10703251DDE
:101AA000042B28BF0423062D4FF0FF358CBF033CC9
:101AB000002405FA03F321EA0303A54022EA050204
:101AC000A340002843EA0203ACBF00F16040084A8B
:101AD0004FEA0313B8BF00F00F00DBB2AABF00F556
:101AE0006140135480F8003330BD00BF00ED00E0CA
:101AF00014ED00E0002807DB044A4109012300F04F
:101B00001F00834042F82130704700BF00E100E031
:101B100010B5044650B1437903F0FF0213B90271C6
:101B2000FFF7F4F901236371002010BD0120FCE7E9
:101B300090F83530022B03D0802343650120704795
:101B40000268052380F83530136823F00103136021
:101B50000020704790F83500704700002DE9F74FDE
:101B6000DFF89891634A00230D6801249C4004EA41
:101B70000506AC4340F0AB804D68032705F0030435
:101B80004FEA430807FA08FC671E012F6FEA0C0CA6
:101B900034D8876807EA0C0ECF6807FA08F747EAD7
:101BA0000E078760476827EA060EC5F300179F40B7
:101BB00047EA0E074760C76807EA0C0E8F6807FA06
:101BC00008F747EA0E07022CC76019D14FEAD30A7B
:101BD00000EB8A0A03F0070BDAF820704FEA8B0B50
:101BE0004FF00F0E0EFA0BFE27EA0E0E0F6907FAE2
:101BF0000BF747EA0E07CAF8207001E0032CDAD190
:101C0000076804FA08F407EA0C073C4315F4403F60
:101C100004605CD000240194D9F8444044F480442A
:101C2000C9F84440D9F8444023F0030707F180473E
:101C300004F4804407F59C37019403F0030C019CE5
:101C4000D7F808E04FEA8C0C0F2404FA0CF42EEAC3
:101C5000040E294CA04241D004F58064A0423FD03C
:101C600004F58064A0423DD004F58064A0423BD0DE
:101C700004F58064A04239D004F58064A04237D0D6
:101C800004F58064A04214BF0724062404FA0CF46F
:101C900044EA0E04BC609468F74315F4801F0CBF3F
:101CA0003C4034439460D46815F4001F0CBF3C40A2
:101CB0003443D460546815F4003F0CBF3C403443B7
:101CC00054601468ED0354BF3C4034431460013346
:101CD000102B7FF449AF03B0BDE8F08F0024D5E7A7
:101CE0000124D3E70224D1E70324CFE70424CDE77E
:101CF0000524CBE7003C01400000024000380240D0
:101D00000369194214BF0120002070470AB18161A4
:101D100070470904FBE7436901EA030221EA030172
:101D200041EA024181617047044A5169014208B5A4
:101D300002D05061FEF768FF08BD00BF003C0140C3
:101D400001684B6913F480634FF0000210D06FF408
:101D500080634B612023026380F83D3080F83E2091
:101D6000036C80F83C2043F00403036401207047B7
:101D7000184670472DE9F84606460F4691461D461F
:101D80004FEA114A3368BAF1010F0CBF5C699C69D4
:101D900027EA0404A4B2B4FA84F46409A14501D08A
:101DA000002025E06A1CEED0FFF746FE089BC01A13
:101DB000A84201D8002DE5D13368BAF1010F0CBF5C
:101DC0005B699B6927EA03039BB2B3FA83F35B0960
:101DD0009945D7D100232022336386F83D2086F829
:101DE0003E30326C86F83C3042F0200232640120F2
:101DF000BDE8F8862DE9F04104460F4616469846A0
:101E00002568686927EA000080B2C0B16B695A058D
:101E100017D52B6843F400732B606FF480636B61FC
:101E200020220023236384F83D2084F83E30236C75
:101E300043F004032364002384F83C300120BDE810
:101E4000F081731CDDD0FFF7F7FDA0EB0800B04276
:101E500001D8002ED4D123685A6927EA020292B22F
:101E6000002ACDD000232022236384F83D2084F86B
:101E70003E30236C1343DDE770B504460D4616462D
:101E800023685B691B0601D500201EE02046FFF792
:101E900057FFC8B96A1CF3D0FFF7CEFD801BA842DC
:101EA00001D8002DECD123685B6913F08003E7D1E2
:101EB0002022236384F83D2084F83E30226C84F88D
:101EC0003C3042F020022264012070BD70B504460F
:101ED0000D46164623685B695B0701D500201EE0AE
:101EE0002046FFF72DFFC8B96A1CF3D0FFF7A4FD09
:101EF000801BA84201D8002DECD123685B6913F048
:101F00000403E7D12022236384F83D2084F83E3087
:101F1000226C84F83C3042F020022264012070BD23
:101F200070B504460D46164621684B6913F0400310
:101F300001D0002011E04A69D2060FD56FF01002DF
:101F40004A612022236384F83D2084F83E30236CCC
:101F50002364002384F83C30012070BDFFF76CFD42
:101F6000801BA84201D8002DDED123685B6913F0E5
:101F70004003D9D12022236384F83D2084F83E30E9
:101F8000236C1343E4E7000070B5044608B9012050
:101F900070BD90F83D3003F0FF021BB980F83C2083
:101FA000FFF73CF9242384F83D3023681A6822F0B7
:101FB00001021A601A6842F400421A601A6822F498
:101FC00000421A6001F0D8F93F4B65689D4294BF0A
:101FD0003E4B3F4B98428CBF00230123002BD6D1B0
:101FE0002268394E51683B4BB0FBF3F321F03F01BF
:101FF0001943B542516088BF4FF49676116A88BF85
:10200000734321F03F0184BF4FF47A76B3FBF6F3BC
:1020100001330B431362D169431E2B4821F44F4116
:10202000854221F0FF0132D86D0040F6FC70B3FB11
:10203000F5F30133034242D0C3F30B031943D161DB
:10204000D4E907301168034321F0C0010B4313604A
:102050009168D4E9030321F40341034321F0FF0114
:102060000B439360D4E90530D168034321F0FF01AD
:102070000B43D360136843F0010313600020202357
:10208000206484F83D30206384F83E0080E7A06837
:1020900050B905EB4505B3FBF5F30133C3F30B036F
:1020A0007BB143F40043C9E719206843B3FBF0F365
:1020B0000133C3F30B0323B143F44043BEE70423CE
:1020C000BCE70123BAE700BFA08601007F841E00A1
:1020D000FF083D0040420F002DE9F043044685B063
:1020E00098460C9F0D469146FFF7A6FC94F83D30AC
:1020F000202B064604D00225284605B0BDE8F08313
:1021000000905E49192301222046FFF733FE002884
:10211000F1D194F83C30012BEDD02168012384F8F3
:102120003C300B68DA075EBF0B6843F001030B60BD
:102130000B6823F400630B60212384F83D301023E7
:1021400084F83E3000232364A4F82A80638D23851D
:102150004B4BE362E36AC4F82490082B04D0012BB4
:1021600002D013F5803F04D10B6843F480730B60F9
:1021700002E0236B122BF7D0002200963B464FF073
:1021800001112046FFF7F6FD226840B11368DB0518
:1021900001D40125B0E74FF400732364F9E7236904
:1021A000B3F5804F21D105F0FE0515613549334661
:1021B0003A462046FFF71EFE05460028E9D123686F
:1021C00003905A6903929B690393039B238DF3B990
:1021D00021680A6842F400720A60202284F83D20D7
:1021E00084F83C3084F83E3086E7EB1103F00603B8
:1021F00043F0F0031361244933463A462046FFF783
:10220000F9FD0028C5D12368EDB21D61CEE7324645
:1022100039462046FFF730FE40B1236C042BB8D17D
:102220002268136843F400731360B2E7636A20689E
:102230001A4612F8011B01616262628D013A92B284
:102240006285228DD0F814C0511E89B21CF0040F93
:1022500021850AD049B15978016102336362638DE7
:10226000013B9BB2023A63852285324639462046BD
:10227000FFF72CFE0028A9D0CFE700BF0200100016
:102280000000FFFF02000100080001002DE9F043FB
:10229000044689B09846109F0E469146FFF7CCFB46
:1022A00094F83D30202B054604D00226304609B074
:1022B000BDE8F08300909A49192301222046FFF7D8
:1022C00059FD0028F1D194F83C30012BEDD0216864
:1022D000012384F83C300B68DB075EBF0B6843F0DA
:1022E00001030B600B6823F400630B60222384F866
:1022F0003D30102384F83E3000232364A4F82A8064
:10230000638D2385874BE362E36A0A68C4F82490EF
:1023100042F48062082B0A6004D0012B02D013F52E
:10232000803F04D10B6843F480730B6002E0236BA1
:10233000112BF7D03B46009500224FF001112046AB
:10234000FFF718FD236838B11B68DD0544BF4FF463
:10235000007323640126A9E72269B2F5804F27D1D3
:1023600046F00106F6B21E616F492B463A462046FA
:10237000FFF740FD06460028ECD1238D2168002B95
:102380004BD103904B6903938B690393039B0B68B9
:1023900043F400730B60DFF89881238D002B64D128
:1023A000202284F83D2084F83C3084F83E307DE7DC
:1023B0004FEAE61808F0060848F0F0021A615B4997
:1023C0002B463A462046FFF715FD0028C2D1236868
:1023D0005549F6B21E613A462B462046FFF70AFDE4
:1023E00002460028B6D12368079059690791996978
:1023F00007910799196841F480711960204600958A
:102400003B464FF00111FFF7B5FC226808B1136895
:102410009BE748F0F1031361A6E7012B0AD10B6893
:1024200023F480630B6004904B6904938B690493DD
:10243000049BACE7022B0B680DD123F480630B6087
:102440000B6843F400630B6005904B6905938B693F
:102450000593059B9FE743F480630B6006904B69EF
:1024600006938B690693069B95E7032B62D8012B95
:1024700016D12A4639462046FFF752FD00287FF440
:1024800069AF23681A69636A1A70636A0133636209
:10249000238D013B2385638D013B9BB263857CE7E4
:1024A000022B00953B464FF00002414620461AD1D0
:1024B000FFF760FC00287FF44DAF23681A6842F4F0
:1024C00000721A601A69636A1A70626A531C636246
:1024D000238D013B2385638D013B9BB2638523687C
:1024E0001B695370D1E7FFF745FC024600287FF4D3
:1024F00031AF2368196821F4806119601969636A32
:102500001970636A01336362238D013B2385638DF8
:10251000013B9BB26385414600953B462046C7E799
:10252000020010000000FFFF02000100080001008F
:10253000040001002A4639462046FFF7F1FC002836
:102540007FF408AF23681A69636A1A70628D616A42
:10255000013A92B24B1C628522686362238D5069F6
:10256000013B9BB2400723857FF517AF032B02BFCA
:10257000136823F48063136013694B7085E700BF11
:10258000704770477047704770477047704790F8C2
:102590003D2008B5036DD2B283B9C36C0268012B2C
:1025A000836C05D1DBB21361036D0233036508BD93
:1025B000C3F307231361036D0133F7E7036D012BA9
:1025C00003D1836C0268DBB2F4E7036D022B2FD1D9
:1025D000222A05D10268136843F480731360EAE786
:1025E000438D9BB263B1212A0AD1436A026813F872
:1025F000011B11614362438D013B9BB24385D6E7CA
:10260000438D9BB2002BD2D1212AD0D102685168D0
:1026100021F4E0615160116841F4007111602022E1
:10262000036380F83D2080F83E30FFF7AFFFBEE740
:1026300003685A69120644BF00221A61B7E770475F
:102640007047704737B5002301932D4B806B1B6893
:1026500090F83D2046F2A811B3FBF1F323214B4340
:1026600001930368D2B2019941BB016C41F0200192
:102670000164446B0CB10021E163816B09B1002559
:10268000CD631D6825F480651D600025458504B176
:10269000256501B10D65196821F00101196090F8F7
:1026A0003D10602911D1202380F83D30002380F8AF
:1026B0003E300364FFF7C5FF03B030BD0199013917
:1026C000019119688905CED4D3E702F02802282A9F
:1026D0000ED1196841F001011960196841F4806157
:1026E00019600023036380F83D20FFF7A9FFE3E7AB
:1026F000202380F83D30002380F83E30F5E700BF0E
:102700000400002010B590F83D2090F83E30102BCA
:10271000D9B204460368D2B201D0402913D1222A8B
:1027200011D1196821F400611960596811F4006130
:1027300006D1602A1EBF202284F83D2084F83E1076
:102740000022226307E002F028012829EDD10022AF
:10275000226384F83D105A6812F400624FD05A6820
:10276000606B22F400625A6090F83530012B374BD1
:102770002BD00365FFF7DCF950B12268606B13685A
:1027800023F001031360202384F83D30036D984744
:10279000236C19071FBF2268536823F4E06353605A
:1027A00094F83D30226C5207DBB20DD5282B0BD1AB
:1027B000274BE362202200232363204684F83D2038
:1027C00084F83E30FFF7E1FE10BDA06B0365FFF714
:1027D000AFF90028DCD023685A69510605D51A697B
:1027E000636A1A70636A013363622268A06B1368BC
:1027F00023F001031360202384F83D30C6E794F8EA
:102800003D10602915D1202184F83D1022645A69B9
:10281000520605D51A69636A1A70636A01336362E6
:102820002268136823F0010313602046FFF709FFB5
:10283000AEE75A69500605D51A69636A1A70636A69
:10284000013363622046FFF7FBFEA1E7452600083F
:102850000000FFFFF0B5036804465A68C66A90F8A6
:102860003E0094F83D1010288FB0C5B2C9B202D016
:10287000402D40F0DD829F69586910F0010F07D1AB
:10288000B6F52A0F02D0B6F12A4F51D10FB0F0BDE4
:1028900096054DD5E26AB2F52A0F0CD10122E2620B
:1028A00094F83E20402A11D1226D52B9626C02F098
:1028B000FE021A61EAE7E26AB2F12A4FF0D1082279
:1028C000EDE7626C42F00102D2B2F2E72269B2F5A2
:1028D000804F1AD194F83D20212A626C11D102F068
:1028E000FE021A61626B0AB1D26B2AB9A26B002A8E
:1028F000CCD0D26B002AC9D05A6842F400625A6028
:10290000C4E742F00102D2B2EBE7226D32B9626C49
:10291000D21102F0060242F0F002CAE7226D012A4B
:10292000B4D1626CD21102F0060242F0F102C0E7AB
:10293000060703D5960501D5626CE4E7860740F1EA
:10294000E880960540F1E58094F83E10E26A256B38
:1029500094F83D002228C9B240F0D380206D40B9E0
:10296000402906D101905A6901929B690193019B0C
:102970008CE7216D89B92069B0F5404F0DD10291E6
:102980005A6902929A690292029A1A6842F4807213
:102990001A60236D0133236578E7618D89B251B9DF
:1029A00003915A6903929A690392039A1A6842F44E
:1029B00000721A6019E0618D89B2012949D112F5BE
:1029C000803F1BD11A6822F480621A605A6812F4A0
:1029D00000620CD01A6822F480621A60002204920D
:1029E0005A6904929B690493049B0023D3E70592E0
:1029F0005A6905929A690592059AD7E7082A1CD068
:102A0000202A1AD0122D0DD1012A16D11A6822F4CB
:102A100080621A60002206925A6906929B690693A8
:102A2000069BE2E7102AF1D8824941FA02F2D70761
:102A3000ECD41A6842F48062EBE71A6822F48062F0
:102A40001A60002207925A6907929A690792079AB8
:102A5000ACE7618D89B2022930D1102A03D87649BA
:102A6000D140CE0715D4196821F480611960196826
:102A700041F40061196059680D0514D5202A1AD84F
:102A8000072A0AD8012A0ED15A6842F480525A60A5
:102A900009E0196841F48061ECE7A2F10801674A96
:102AA000CA40D007F0D4002208925A6908929B6964
:102AB0000893089B99E712F5803FE4E7196841F411
:102AC000806119605968090510D5202A16D8072A8F
:102AD00006D8012A0AD15A6842F480525A6005E0A9
:102AE000A2F10801554ACA40D207F4D40022099243
:102AF0005A6909929B690993099B76E712F5803F11
:102B0000E8E700220A925A690A929B690A930A9B93
:102B1000BCE67F0740F194805E6836053FF5B6AEAF
:102B2000070600F004063ED550053CD5002E3DD1E9
:102B300094F83D20258D94F83E10E06AD2B2C9B2D7
:102B4000C5B9212A18D1082858D0202856D010F508
:102B5000803F53D05A6822F4E0625A601123236305
:102B6000002384F83E30202384F83D302046FFF7D0
:102B700007FD8BE6212A05D040297FF487AE222A63
:102B80007FF484AE628D92B21AB95A6822F48062E0
:102B9000B5E694F83E20402A16D120460FB0BDE895
:102BA000F040FFF7F4BC002E3FF470AE97057FF5C0
:102BB0006DAE212939D1E16A94F83D20212A7FF4B4
:102BC00065AE628D92B24AB1626A12F8011B196158
:102BD0006262638D013B9BB2638557E608290DD085
:102BE00020290BD011F5803F08D0596821F4E0610D
:102BF00059601123236384F83E20B4E75A6822F415
:102C0000E0625A601A6842F400721A6000232022BF
:102C1000236384F83D2094F83E2084F83E30402A17
:102C20002046A4D1FFF7B2FC30E6402D7FF42EAE53
:102C3000B3E700BFEBFFFEFF14000100010100013C
:102C400059680E053FF522AE450600F0040140F13B
:102C50008680500540F18380002940F0838094F8FD
:102C60003D20222A7FF412AEE06A628D92B2032ADE
:102C700014D91A69636A1A70636A01336362638DD7
:102C8000013B9BB26385638D9BB2032B7FF4FEAD4A
:102C90002268536823F480635360F7E5E56A022DE8
:102CA0003FF473AF012A3FF670AF7A4A0B91126876
:102CB00046F2A811B2FBF1F202EB82020B920B9AE0
:102CC000013A0B920B99D1B9226C42F02002226496
:102CD0005A6822F4E0625A601A69636A1A70636A79
:102CE00001336362638D013B9BB26385202384F8CB
:102CF0003D30204684F83E10FFF7A2FCC6E51A6876
:102D000012F40072DBD1196821F4806119605968EE
:102D100021F4E06159601969636A1970636A0133CB
:102D20006362638D013B9BB26385202384F83D3051
:102D300094F83E3084F83E20402B04D12263204694
:102D4000FFF77DFCA2E5082801D0202801D100234F
:102D500000E0122323632046FFF713FC96E50029C9
:102D60003FF494AD92057FF591ADE26A608D616AA2
:102D700080B2042809D15A6822F480625A601B6923
:102D80000B70636A0133636223E7608D80B20328AE
:102D90000CD15868042A20F480605860EFD0022AD1
:102DA000EDD01A6822F480621A60E8E7608D80B284
:102DB0000228E4D1042A33D007D8012A07D0022AF6
:102DC0002ED0186840F4007004E0102AF9D1186879
:102DD00020F4806018601B690B70616A4B1C636291
:102DE000638D013B9BB2638523681B694B70636AEB
:102DF000216801336362638D013B9BB263854B683D
:102E000023F440734B60202384F83D3094F83E3027
:102E1000402B4FF0000384F83E3005D123638EE74A
:102E2000186840F48060D5E7082A90D0202A8DE702
:102E3000206C10B35869002587072DD596052BD532
:102E4000226C02B19D6994F83D2002F02802282AE4
:102E500016D15A6822F480625A602F0685F0040168
:102E60004FF0000354BFA289228B84F83C30C1F399
:102E700080012046FFF788FB08E59D695869DBE77C
:102E800000220C9259690C919B690C930C9B84F85D
:102E90003C20FBE404000020C60640F1B18095050B
:102EA00040F1AE8094F83D505A6822F4E0625A60D6
:102EB00000220D925A690D921A6842F001021A60BE
:102EC0000D9A1A6822F480621A605A681005EDB2F1
:102ED00020D505F0F702222A4AD1A06B0268526879
:102EE00092B26285628D92B21AB1226C42F00402F3
:102EF00022645A6822F400625A60FEF72BFE012811
:102F000008D0A06B794B0365FEF712FE10B1A06BE1
:102F1000036D9847638D9BB213B323685A695107B9
:102F200009D51A69636A1A70636A01336362638D33
:102F3000013B9BB2638523685A69520609D51A6919
:102F4000636A1A70636A01336362638D013B9BB2EB
:102F50006385638D9BB21BB1236C43F00403236430
:102F6000236C13B320460FB0BDE8F040FFF7CABB97
:102F7000606B0268526892B26285628D92B21AB139
:102F8000226C42F0040222645A6822F400625A6001
:102F9000FEF7E0FD0128BDD0606B544B0365FEF7E2
:102FA000C7FD0028B6D0606BB2E72A2D06D1236397
:102FB000282384F83D302046FFF7E5FA94F83D30A9
:102FC000282B0CD14A4BE3622022002323632046A6
:102FD00084F83D2084F83E30FFF7D7FA56E4236B9F
:102FE000222B02D0222D7FF451AC00232022236318
:102FF00084F83D2084F83E302046FFF7C4FA45E4CB
:1030000001F0F701212900F0040535D1070627D585
:10301000560525D53DBB94F83D00628D92B2C0B2F5
:10302000002A3FF433AC626A12F8015B1D616262F0
:10303000628D013A92B26285628D92B2002A7FF46B
:1030400025AC29287FF422AC5A6822F480625A60A9
:1030500028232163204684F83D30FFF793FA15E4D6
:10306000002D3FF413AC95057FF510AC628D92B244
:10307000002A3FF40BACA7E5400627D5510525D51E
:103080003DBB94F83D20618D89B2D2B200293FF456
:10309000FDAB1969636A1970636A01336362638DFA
:1030A000013B9BB26385638D9BB2002B7FF4EEAB3B
:1030B0002A2A7FF4EBAB2268536823F480635360C1
:1030C00022232363282384F83D3095E7002D3FF425
:1030D000DDAB92057FF5DAAB628D92B2002A3FF448
:1030E000D5AB1A69636A1A704BE600BF4526000823
:1030F0000000FFFF2DE9F041DDF8188004460E4680
:1031000015461F4622689368334214BF01230023EB
:10311000AB4201D100200FE0B8F1FF3FF3D0FEF742
:103120008BFCC01B404509D9042384F84130636CF3
:1031300043F0010363640120BDE8F081B8F1000FA2
:10314000E0D1F1E737B50446FEF776FC0546002CE2
:1031500046D094F8413003F0FF023BB984F8402098
:103160002046FEF727F941F28833A3642168A3685B
:103170000A68013B22F4F85242EA0322A36C0A6077
:103180002046009300222B462021FFF7B3FF10BBFF
:10319000E569E36822682B43256A11682B4365685B
:1031A00021F07F4143EA056321F0D0010B43136016
:1031B000D4E905310B432169556843EA01430949C4
:1031C00029400B435360136843F00103136001234C
:1031D000606484F84130002384F8403003B030BD8F
:1031E0000120FBE7FEF8E0FF134908B58B6803F008
:1031F0000C03042B1CD0082B1CD14A684B6849686F
:1032000013F4800314BF0D480D48C1F3881118BF93
:10321000002302F03F02A1FB0001FDF749F8064B35
:103220005B68C3F3014301335B00B0FBF3F008BDFF
:103230000248FCE70248FAE70038024000127A0030
:103240000024F4002DE9F0410D46044610B9012098
:10325000BDE8F081434B1A6802F007028A4228D386
:1032600021688F072DD4C80740D43E4B1A6802F05E
:103270000702AA4265D8226851076BD4130707D505
:10328000394A2169936823F4604343EAC103936098
:10329000FFF7AAFF344B354A9B68C3F30313D35C93
:1032A000D840334B1860334B1868FEF717F90020ED
:1032B000CEE7CAB21A701B6803F007038B42C6D16F
:1032C000CEE7294B11F0040F1EBF9A6842F4E0527A
:1032D0009A600E0742BF9A6842F460429A609A6808
:1032E000A06822F0F00202439A60BCE762681E4BBD
:1032F000012A1CD11B6813F4003FA8D01A4EB368F2
:1033000023F003031343B360FEF796FB41F28838C2
:103310000746B368626803F00C03B3EB820FA4D0D6
:10332000FEF78AFBC01B4045F3D9032090E7911EAE
:1033300001291B6802D813F0007FDEE713F0020FAB
:10334000DBE7EAB21A701B6803F00703AB427FF4B5
:103350007EAF90E70449E0688B6823F4E0530343B1
:103360008B608BE7003C0240003802404CCA0008EA
:10337000040000200C000020044B054A9B68C3F3A6
:103380008223D35C034A1068D8407047003802405B
:1033900044CA0008040000200F2303600B4B9A6806
:1033A00002F0030242609A6802F0F00282609A68BA
:1033B00002F4E052C2609B68DB0803F4E05303614F
:1033C000034B1B6803F007030B6070470038024093
:1033D000003C02402DE9F341044640B30368DE0798
:1033E00010D423689D075BD42368190700F19D80E2
:1033F00023685A0700F1BD80A369002B40F02481A7
:1034000000202CE08D4B9A6802F00C02042A07D0B1
:103410009A6802F00C02082A0BD15B68590208D5A1
:10342000864B1B689A03DCD56368002BD9D1012039
:1034300015E06368814DB3F5803F13D12B6843F4E9
:1034400080332B60FEF7F8FA7C4E054633689B0309
:10345000C7D4FEF7F1FA401B6428F7D9032002B065
:10346000BDE8F081B3F5A02F04D12B6843F480238D
:103470002B60E3E72A6822F480322A602A6822F46B
:1034800080222A60002BDDD1FEF7D6FA06462B6893
:103490009F03A6D5FEF7D0FA801B6428F7D9DDE795
:1034A000664B9A6812F00C0F07D09A6802F00C0273
:1034B000082A11D15B685D020ED4604A136899072F
:1034C00002D5E368012BB2D11368216923F0F80318
:1034D00043EAC103136087E7E268594BB2B10122A6
:1034E0001A60FEF7A9FA554D06462B689B0707D5CB
:1034F0002B68226923F0F80343EAC2032B6073E7C9
:10350000FEF79AFA801B0228EFD9A7E71A60FEF7A8
:1035100093FA4A4E054633689F077FF565AFFEF77D
:103520008BFA401B0228F6D998E76269444B82B1B6
:103530000122C3F8802EFEF77FFA404E0546736FD6
:103540009B073FF555AFFEF777FA401B0228F6D9E7
:1035500084E7C3F8802EFEF76FFA384E0546736F86
:103560009F077FF545AFFEF767FA401B0228F6D9A3
:1035700074E7324B1A6C12F0805228D101921A6C07
:1035800042F080521A641B6C03F080530193019B3C
:1035900001272C4D2B68D8051BD5A368274D012B7F
:1035A00027D12B6F43F001032B67FEF745FA234E1B
:1035B000054641F28838336F9A0739D5002F3FF41A
:1035C0001BAF1E4A136C23F08053136414E70027CB
:1035D000DFE72B6843F480732B60FEF72DFA064675
:1035E0002B68D905D9D4FEF727FA801B0228F7D912
:1035F00034E7052B04D12B6F43F004032B67D0E78E
:103600002A6F22F001022A672A6F22F004022A6739
:10361000002BCAD1FEF710FA41F2883806462B6F0C
:103620009B07CBD5FEF708FA801B4045F7D915E775
:10363000FEF702FA401B4045BDD90FE700380240B3
:1036400000004742007000403C4DAA6802F00C02A6
:10365000082A41D0022B3A4B4FF000021A662ED1B5
:10366000FEF7EAF906462B68990122D4D4E907321D
:103670001343626A43EA8213E26A43EA0263226BFB
:1036800043EA0273A26A5208013A43EA02436B60BA
:103690002B4B2A4D01221A66FEF7CEF904462B6801
:1036A0009A013FF5ADAEFEF7C7F9001B0228F6D927
:1036B000D4E6FEF7C1F9801B0228D4D9CEE6FEF786
:1036C000BBF904462B689B017FF59AAEFEF7B4F96F
:1036D000001B0228F6D9C1E6012B3FF4A8AE6B68A7
:1036E000E26903F4800191427FF4A1AE216A03F004
:1036F0003F028A427FF49BAE616A47F6C0721A406D
:10370000B2EB811F7FF493AEA26A520803F44031FA
:10371000013AB1EB024F7FF48AAEE16A03F07062C6
:10372000B2EB016F7FF483AE226B03F0E043B3EBA7
:10373000027F14BF0120002091E600BF0038024044
:103740000000474270B50E461546044628B390F86F
:10375000493003F0FF021BB980F84820FDF758FC00
:1037600004F10801206800F06FF9A2682068314672
:1037700000F0AEF9236BA2686068294600F0CEF92C
:103780002268A16852F8213043F0010342F8213049
:10379000012384F84930002070BD0120FCE7704708
:1037A00090F83D30012B30D1022380F83D30036882
:1037B000DA6842F00102DA60154A93421AD0B3F196
:1037C000804F17D0A2F57C42934213D002F580625D
:1037D00093420FD002F5806293420BD002F57842FB
:1037E000934207D002F57052934203D0A2F594326F
:1037F000934204D19A6802F00702062A03D01A689D
:1038000042F001021A60002070470120704700BF9B
:10381000000001407047704770477047036870B5FB
:10382000DD681E69B10704460DD5AA070BD56FF0F8
:1038300002021A61012202779B699B0769D0FFF798
:10384000EAFF00232377710710D56A070ED5236896
:103850006FF004021A61022222779B6913F4407F01
:1038600020465CD0FFF7D7FF0023237733070FD51F
:1038700028070DD523686FF008021A610422227709
:10388000DB699907204650D0FFF7C5FF0023237757
:10389000F20610D5EB060ED523686FF010021A6100
:1038A00008222277DB6913F4407F204643D0FFF7DC
:1038B000B2FF00232377F00708D5E90706D5236870
:1038C0006FF001021A612046FDF748FD320608D567
:1038D0002B0606D523686FF080021A61204600F09F
:1038E000B2F8700608D5690606D523686FF0400265
:1038F0001A612046FFF791FFB20622D5AB0620D50C
:1039000023686FF0200220461A61BDE8704000F085
:1039100099B8FFF77FFF2046FFF77EFF91E7FFF79B
:1039200079FF2046FFF778FF9EE7FFF773FF2046F9
:10393000FFF772FFAAE7FFF76DFF2046FFF76CFF66
:10394000B7E770BD274A0368904212D0B0F1804FAC
:103950000FD0A2F57C4290420BD002F580629042DB
:1039600007D002F58062904203D002F5784290427F
:1039700008D14A6823F070031343CA6823F44073E4
:10398000134316E0184A9042F7D002F58062904245
:10399000F3D002F580629042EFD0A2F598329042C7
:1039A000EBD002F580629042E7D002F5806290424F
:1039B000E3D04A6923F0800313438A68C2620A682D
:1039C0008262084A904203D002F58062904201D19F
:1039D0000A690263026842F0040202600122426145
:1039E00003607047000001400040014010B50446EC
:1039F00030B390F83D3003F0FF021BB980F83C2053
:103A0000FFF7CDFE0223206884F83D30211DFFF72B
:103A100099FF012384F84630002084F83E3084F872
:103A20003F3084F8403084F8413084F8423084F8E4
:103A3000433084F8443084F8453084F83D3010BD7C
:103A40000120FCE7704770470A6850F8223023F0E5
:103A50000103F0B58D6840F822304B68CF6850F80C
:103A600022C02B433B430F693B434F693B43CF6924
:103A70003B430F6A3B434F6A3B438F6A3B43CF6AEA
:103A8000D1E90D643B430F6BC96B3B433343234385
:103A90000B430E4901EA0C010B43A5F108014D420D
:103AA0004D4143EA8513B6F5801F40F8223008D116
:103AB0004AB1036843F48013036003681C43046045
:103AC00001E0002AF9D10020F0BD00BF8004C0FF52
:103AD00070B50B688E690C6933434E6843EA061370
:103AE0008E6843EA0623CE684969013C43EA0643EF
:103AF000013243EA0453023943EA016340F82230B9
:103B00000368DB024FEA045506D543684268134355
:103B100023F470032B434360002070BDB3F5804F46
:103B200030B514D18D690B6850F822402B434D6895
:103B300043EA05138D68C96843EA052343EA014354
:103B4000044921400B4340F82230002030BD6FF083
:103B50007043F8E70000F0CF08B54FF0E0231B6991
:103B600001F024FE012803D0BDE8084000F0E2BBCC
:103B700008BD0000EFF305832BB9064B186828B980
:103B800001221A6070476FF0050070474FF0FF3058
:103B9000704700BFD80A002010B5EFF305845CB968
:103BA000084B1A68012A0AD1074AD47702221A6000
:103BB00001F0A4FC204610BD6FF00500FBE74FF0BC
:103BC000FF30F8E7D80A002000ED00E0F0B587B03C
:103BD000144600220B460592EFF30582FAB9F0B1C4
:103BE00054B3A56925B1691E372902D9002017E011
:103BF00018256268D207F9D466699EB1B208D4E983
:103C0000027C216887B1BCF15F0F08D9246934B107
:103C10002EB1CDE90147009501F0B1FA0590059864
:103C200007B0F0BD8022EAE7BCF1000FF7D12469AC
:103C3000002CF4D10C4601E01825802205A9CDE91D
:103C4000005192B2214601F0D2FA01281CBF002394
:103C50000593E4E708B5EFF3058222B908B101F056
:103C60000DFC002008BD6FF00500FBE7F7B504462A
:103C70000E461546EFF3058242B938B1884205D3A6
:103C800055B1D5E902372BB14F2F22D80024204659
:103C900003B0F0BD002FF9D1012C0CD020463146E5
:103CA00000F080FD04460028F0D085B92946204662
:103CB00001F09EF8EBE703220021012000F029FD2E
:103CC0000EE01A4600F04CFD04460028DED02D68B8
:103CD000ECE70128F5D103210091114600F0CBFC5F
:103CE00004460028D2D0002EDFD000231A46194601
:103CF00000F076FD0128D8D0204601F0A3F8C5E7F2
:103D000013B50C4628B3EFF30583CBB109BB01AA69
:103D1000019101F020F8012803D06FF0020002B0F9
:103D200010BD019B0BB90020F9E74FF0E0234FF0E5
:103D30008052C3F8042DBFF34F8FBFF36F8FF2E7AC
:103D400000F04CFF0128EED0002CE6D06FF001000F
:103D5000E5E76FF00300E2E707B518B3EFF305837B
:103D6000CBB1002301A9019300F049FE012804D042
:103D70006FF0020003B05DF804FB019B4BB14FF004
:103D8000E0234FF08052C3F8042DBFF34F8FBFF3F1
:103D90006F8F0020EEE71A46194600F021FD01283A
:103DA000F7D0E5E76FF00300E4E7F7B505460E4608
:103DB0001446EFF305871FB10025284603B0F0BD78
:103DC0000028F9D00029F7D0DAB1D2E9023283B164
:103DD0004F2AF1D92269002AEED066694D43AE42DE
:103DE000EAD3009700F047FC05460028E4D0246899
:103DF00011E0002AE0D12369002BDDD16369002B9B
:103E0000DAD128460022314600F083FC054600281E
:103E1000D2D0002CEBD12146284600F0E9FFCCE7B8
:103E200073B51C46EFF30586DEB138B331B32BBB57
:103E300001AA019300F086FD012803D06FF0020073
:103E400002B070BD019B0BB90020F9E74FF0E023F1
:103E50004FF08052C3F8042DBFF34F8FBFF36F8F25
:103E6000F2E758B151B13346224600F0B9FC0128BF
:103E7000EAD0002CE2D06FF00100E1E76FF0030020
:103E8000DEE737B51C46EFF30583DBB130B329B36A
:103E900024BB01AA019400F05EFF012803D06FF05B
:103EA000020003B030BD019B0BB90020F9E74FF0D1
:103EB000E0234FF08052C3F8042DBFF34F8FBFF3C0
:103EC0006F8FF2E750B149B1224600F0E9FD0128B9
:103ED000EBD0002CE3D06FF00100E2E76FF00300BD
:103EE000DFE70000034B0360034B0B60802313608C
:103EF000704700BF780A002078080020034B036059
:103F0000034B0B604FF48073136070471808002058
:103F10001804002010B5104B1A461B688342FBD3CF
:103F200054681119884201BF41681046091951604F
:103F3000446801198B420CD1084909688B4203D0AF
:103F400059682144416019680160904218BF1060AF
:103F500010BD1946F8E700BFF40A0020F00A00205F
:103F60002DE9F041044601F071F94249424D0B68D8
:103F70000BBB424A56071FBFD01D20F0070002F5B9
:103F80000042131A0CBF4FF40043024613443C4E48
:103F9000083B23F00703002070603260C3E9000093
:103FA000981AC2E900300B60364B1860364B186027
:103FB0004FF000432B602E68264255D1002C46D08E
:103FC00004F1080360071CBF23F007030833002B2C
:103FD0004AD02D4F3C689C4246D3294A15686868F0
:103FE000984204D2D5F800C0BCF1000F15D1096881
:103FF000A94239D02968D2F800801160C21A102A6B
:1040000012D9E81841070BD04FF0500383F3118801
:10401000BFF36F8FBFF34F8FFEE72A466546DEE79B
:1040200042606B60FFF776FF6A681649A41A164370
:10403000164A08683C6000232B6013686E60844257
:1040400003F1010338BF0C60136008F1080401F0AC
:10405000A1F963070AD04FF0500383F31188BFF32F
:104060006F8FBFF34F8FFEE70024F0E72046BDE8D7
:10407000F08100BFF00A0020DC0A0020FC0A0020CA
:10408000F40A0020E80A0020EC0A0020E40A0020DC
:1040900010B5044690B31A4A50F8043C1268134213
:1040A00008D14FF0500383F31188BFF36F8FBFF334
:1040B0004F8FFEE750F8081C41B14FF0500383F3D7
:1040C0001188BFF36F8FBFF34F8FFEE723EA020320
:1040D00040F8043C01F0BAF80A4A54F8043C11686C
:1040E000A4F108000B441360FFF714FF064A13689D
:1040F000BDE810400133136001F04CB910BD00BFA2
:10410000DC0A0020EC0A0020E00A002000F108038D
:104110004FF0FF32C0E902234360036100230360D4
:10412000704700230361704743684B609A688A6058
:10413000516099600368086101330360704730B5CE
:104140000C68631C0AD103695A684A6091608B60ED
:104150005960036808610133036030BD00F1080253
:10416000134652681568A542FAD9EDE7D0E9011265
:1041700003698A6051605968814208BF5A60002211
:1041800002611A68013A1A601868704708480068A6
:10419000006880F308884FF0000080F3148862B64E
:1041A00061B6BFF34F8FBFF36F8F00DF00BF00001A
:1041B00008ED00E0DFF80C00016841F470010160D7
:1041C0007047000088ED00E082B0002301930D4BA2
:1041D0001B68013308D04FF0500383F31188BFF3FD
:1041E0006F8FBFF34F8FFEE74FF0500383F31188BB
:1041F000BFF36F8FBFF34F8F019B002BFCD002B03A
:10420000704700BF100000204FF0807340F8043C5E
:10421000074B40F80C3C21F001016FF0020340F81D
:10422000081C40F8202C40F8243C4438704700BF5C
:10423000C94100080000000000000000000000006C
:10424000074B19680868B0E8F04F80F30988BFF39E
:104250006F8F4FF0000080F311887047AFF300803C
:104260003C9000204FF0500383F31188BFF36F8F11
:10427000BFF34F8F0A4A13680133012B13600ED12D
:104280004FF0E023D3F8043DDBB243B14FF05003CD
:1042900083F31188BFF36F8FBFF34F8FFEE7704733
:1042A00010000020084A136843B94FF0500383F30D
:1042B0001188BFF36F8FBFF34F8FFEE7013B136091
:1042C0000BB983F311887047100000200000000034
:1042D000EFF30980BFF36F8F154B1A681EF0100FB4
:1042E00008BF20ED108A20E9F04F10602DE9090089
:1042F0004FF0500080F31188BFF34F8FBFF36F8FE3
:1043000001F04AF94FF0000080F3118809BC1968E8
:104310000868B0E8F04F1EF0100F08BFB0EC108A2C
:1043200080F30988BFF36F8F704700BFAFF3008041
:104330003C90002008B54FF0500383F31188BFF381
:104340006F8FBFF34F8F00F08FFF28B14FF0E02346
:104350004FF08052C3F8042D002383F3118808BD69
:104360004FF0E022002313619361054B4FF47A7103
:104370001B68B3FBF1F3013B5361072313617047E3
:10438000040000204FF0E02337B5D3F8001D384A71
:10439000914208D14FF0500383F31188BFF36F8F20
:1043A000BFF34F8FFEE7D3F8002D324B9A4208D16E
:1043B0004FF0500383F31188BFF36F8FBFF34F8F1C
:1043C000FEE72D4B1A78D2B20192FF221A701B78A9
:1043D0002A4ADBB28DF803309DF8033003F0500316
:1043E0001370274A072313609DF80310136809060A
:1043F0000AD4032B11D04FF0500383F31188BFF37D
:104400006F8FBFF34F8FFEE7013B13609DF80330C2
:104410005B00DBB28DF80330E6E74FF440731360C6
:10442000019B154A4FF0E024DBB21370D4F8203D15
:1044300043F47003C4F8203DD4F8203D43F07043AA
:10444000C4F8203DFFF78CFF0E4B00251D60FFF7E1
:10445000B1FED4F8343F43F04043C4F8343FFFF793
:1044600095FE01F099F8FFF7AFFE284603B030BD86
:1044700071C20F4170C20F4100E400E0008B0020C8
:10448000FC8A002010000020EFF305830F2B0ED9CB
:10449000114A9B5C114A12789A4208D94FF0500396
:1044A00083F31188BFF36F8FBFF34F8FFEE74FF099
:1044B000E0230B4AD3F80C3D126803F4E063934207
:1044C00008D94FF0500383F31188BFF36F8FBFF308
:1044D0004F8FFEE7704700BFF0E300E0008B002045
:1044E000FC8A002010B50446FFF7BCFEA46BFFF762
:1044F000D9FEB4FA84F0400910BD70B51646026CBE
:10450000856B044642B906689EB9806801F09CF943
:10451000A6600135A56370BD6EB9406807F0EBF881
:104520006368226C1344A2686360934224BF2368CB
:1045300063600020EDE7C06807F0DDF8226CE368F7
:1045400051429B1A2268E36093423EBFA3685B1806
:10455000E360022EEDD10DB1013DEAE72846D8E730
:10456000034610B41A6C08466AB1DC6899681444B2
:104570008C4228BF1968DC6028BFD960D9685DF813
:10458000044B07F0B8B85DF8044B704770B50446AB
:10459000FFF768FE94F8455004F124066DB2002D33
:1045A00001DD636AB3B9FF2384F84530FFF77AFE73
:1045B000FFF758FE94F8445004F110066DB2002D38
:1045C00001DD23697BB9FF2384F84430BDE87040E6
:1045D000FFF768BE304601F05BF808B101F0E0F883
:1045E000013D6DB2DBE7304601F052F808B101F051
:1045F000D7F8013D6DB2E2E738B50D46044640B943
:104600004FF0500383F31188BFF36F8FBFF34F8FC9
:10461000FEE7FFF727FED4E90F31226862604B43C3
:10462000D0185B1A1A44A060FF230020A063E26048
:1046300084F8443084F84530A5B9236973B104F196
:10464000100001F025F848B14FF0E0234FF0805200
:10465000C3F8042DBFF34F8FBFF36F8FFFF722FE18
:10466000012038BD04F11000FFF750FD04F12400D3
:10467000FFF74CFDF2E737B50D461C4640B94FF049
:10468000500383F31188BFF36F8FBFF34F8FFEE7A3
:1046900043B94FF0500383F31188BFF36F8FBFF31B
:1046A0004F8FFEE74AB191B94FF0500383F3118861
:1046B000BFF36F8FBFF34F8FFEE741B14FF0500351
:1046C00083F31188BFF36F8FBFF34F8FFEE7502343
:1046D0000193019B502B08D04FF0500383F31188B6
:1046E000BFF36F8FBFF34F8FFEE70121002D08BF8F
:1046F0002246C4E90F0584F8461022602046019B3B
:10470000FFF77AFF9DF8183084F84C30204603B04C
:1047100030BDF8B50D461746064640B94FF0500378
:1047200083F31188BFF36F8FBFF34F8FFEE74843CA
:104730005030FFF715FC044670B1002380F8463076
:1047400065B100F15003C4E90F65236001212046E3
:10475000FFF752FF84F84C702046F8BD0346F2E79D
:1047600013B513460C4640B94FF0500383F311883C
:10477000BFF36F8FBFF34F8FFEE7884208D24FF031
:10478000500383F31188BFF36F8FBFF34F8FFEE7A2
:104790000222009200221146FFF76DFF00B18463F0
:1047A00002B010BD10B50C4640B94FF0500383F372
:1047B0001188BFF36F8FBFF34F8FFEE7884208D297
:1047C0004FF0500383F31188BFF36F8FBFF34F8F08
:1047D000FEE702220021FFF79CFF00B1846310BDB9
:1047E0002DE9FF410F4601921E46044640B94FF0A5
:1047F000500383F31188BFF36F8FBFF34F8FFEE732
:1048000051B9036C43B14FF0500383F31188BFF3E8
:104810006F8FBFF34F8FFEE7022E0BD1E36B012B9F
:1048200008D04FF0500383F31188BFF36F8FBFF3AD
:104830004F8FFEE700F0BAFF054620B300254FF08A
:104840000008FFF70FFDA26BE36B9A4227D23246B6
:1048500039462046FFF751FE636A1BB104F124007C
:1048600000F016FF48B14FF0E0234FF08052C3F83C
:10487000042DBFF34F8FBFF36F8FFFF713FD0120A0
:1048800004B0BDE8F081019B002BD8D04FF050035D
:1048900083F31188BFF36F8FBFF34F8FFEE7022EB4
:1048A000D5D0019B1BB9FFF7FDFC0020E8E715B947
:1048B00002A800F02DFFFFF7F5FC00F0C7FCFFF7A2
:1048C000D1FC94F84430FF2B08BF84F8448094F85E
:1048D0004530FF2B08BF84F84580FFF7E3FC01A9B2
:1048E00002A800F021FF38BBFFF7BCFCA26BE36B12
:1048F0009A420ED1FFF7D6FC019904F1100000F0A6
:104900008FFE2046FFF742FE00F044FD48B101252E
:1049100097E7FFF7C7FC2046FFF738FE00F03AFDA7
:10492000F5E74FF0E0234FF08052C3F8042DBFF3BA
:104930004F8FBFF36F8FEAE72046FFF727FE00F0A7
:1049400029FDB2E72DE9F843894617461E4604467D
:1049500040B94FF0500383F31188BFF36F8FBFF35B
:104960004F8FFEE751B9036C43B14FF0500383F30F
:104970001188BFF36F8FBFF34F8FFEE7022E0BD16D
:10498000E36B012B08D04FF0500383F31188BFF382
:104990006F8FBFF34F8FFEE7FFF776FDEFF31188C0
:1049A0004FF0500383F31188BFF36F8FBFF34F8F26
:1049B000A26BE36B9A4201D3022E1ED194F84550AC
:1049C000A36B6DB2324649462046FFF796FD6B1C3D
:1049D0000ED1636A3BB104F1240000F059FE10B11E
:1049E0000FB101233B60012088F31188BDE8F883F3
:1049F00001356DB284F84550F5E70020F4E770B555
:104A00000D46044640B94FF0500383F31188BFF3BD
:104A10006F8FBFF34F8FFEE7036C43B14FF050032E
:104A200083F31188BFF36F8FBFF34F8FFEE70368E7
:104A300053B9836843B14FF0500383F31188BFF338
:104A40006F8FBFF34F8FFEE7FFF71EFDEFF3118669
:104A50004FF0500383F31188BFF36F8FBFF34F8F75
:104A6000A26BE36B934219D994F845100132FF29E8
:104A70004BB2A2630DD1636A3BB104F1240000F094
:104A800007FE10B10DB101232B60012086F31188C0
:104A900070BD01335BB284F84530F6E70020F5E7DE
:104AA0002DE9FF410E460192044640B94FF05003F4
:104AB00083F31188BFF36F8FBFF34F8FFEE751B9B8
:104AC000036C43B14FF0500383F31188BFF36F8F32
:104AD000BFF34F8FFEE700F069FE054618B30025CF
:104AE0004FF00008FFF7BEFBA76B47B331462046E7
:104AF000013FFFF735FDA763236973B104F110008F
:104B000000F0C6FD48B14FF0E0234FF08052C3F8EB
:104B1000042DBFF34F8FBFF36F8FFFF7C3FB01204F
:104B200004B0BDE8F081019B002BD9D04FF05003B9
:104B300083F31188BFF36F8FBFF34F8FFEE7019BA5
:104B40001BB9FFF7AFFB0020EAE715B902A800F098
:104B5000DFFDFFF7A7FB00F079FBFFF783FB94F87D
:104B60004430FF2B08BF84F8448094F84530FF2B75
:104B700008BF84F84580FFF795FB01A902A800F063
:104B8000D3FD00BB2046FFF7ADFCB0B1019904F1A5
:104B9000240000F045FD2046FFF7F8FC00F0FAFB8A
:104BA00048B94FF0E0234FF08052C3F8042DBFF313
:104BB0004F8FBFF36F8F012594E72046FFF7E6FC88
:104BC00000F0E8FBF7E72046FFF7E0FC00F0E2FB2F
:104BD0002046FFF787FC0028EDD0B4E7F0B585B09C
:104BE0000446019140B94FF0500383F31188BFF39D
:104BF0006F8FBFF34F8FFEE7056C45B14FF0500349
:104C000083F31188BFF36F8FBFF34F8FFEE700F080
:104C1000CDFD064620B32E460027FFF723FBA36BEE
:104C200053B3013BA363236813B900F09DFEA0605A
:104C3000236973B104F1100000F02AFD48B14FF070
:104C4000E0234FF08052C3F8042DBFF34F8FBFF322
:104C50006F8FFFF727FB012005B0F0BD3546DBE77E
:104C6000019B002BFAD04FF0500383F31188BFF360
:104C70006F8FBFF34F8FFEE7019B53B9002D66D0B6
:104C80004FF0500383F31188BFF36F8FBFF34F8F43
:104C9000FEE716B902A800F03BFDFFF703FB00F0AA
:104CA000D5FAFFF7DFFA94F84430FF2B08BF84F8F9
:104CB000447094F84530FF2B08BF84F84570FFF727
:104CC000F1FA01A902A800F02FFD50BB2046FFF722
:104CD00009FC00B323683BB9FFF7C4FAA06800F0F1
:104CE00075FD0546FFF7DEFA019904F1240000F096
:104CF00097FC2046FFF74AFC00F04CFB48B94FF008
:104D0000E0234FF08052C3F8042DBFF34F8FBFF361
:104D10006F8F012681E72046FFF738FC00F03AFB51
:104D2000F7E72046FFF732FC00F034FB2046FFF7A0
:104D3000D9FB0028EDD065B1FFF794FA616A19B18B
:104D4000236B1968C1F13801A06800F0BFFDFFF7BF
:104D5000A9FA002080E72DE9F843894690460446E9
:104D600040B94FF0500383F31188BFF36F8FBFF347
:104D70004F8FFEE751B9036C43B14FF0500383F3FB
:104D80001188BFF36F8FBFF34F8FFEE7FFF77CFBF8
:104D9000EFF311874FF0500383F31188BFF36F8F48
:104DA000BFF34F8FA56B0DB394F84460494676B2BC
:104DB0002046FFF7D5FB013D731CA56311D1236984
:104DC00053B104F1100000F063FC28B1B8F1000FFA
:104DD00002D00123C8F80030012087F31188BDE814
:104DE000F883013676B284F84460F5E72846F4E7A4
:104DF00030B5074A002352F8335002EBC3041DB903
:104E000042F83310606030BD0133082BF3D1FAE76C
:104E1000048B002010B5094A002352F83310814258
:104E20004FEAC30406D1064A002142F83310224457
:104E3000516010BD0133082BEFD1FAE7088B002039
:104E4000048B002010B540B94FF0500383F3118854
:104E5000BFF36F8FBFF34F8FFEE7FFF7DBFF90F8D5
:104E600046301BB9BDE81040FFF712B910BD70B550
:104E700004460D461646FFF7F5F994F84430FF2B2B
:104E800004BF002384F8443094F84530FF2B04BF5E
:104E9000002384F84530FFF705FAA36B2BB932469F
:104EA000294604F1240000F0D5FB2046BDE87040FF
:104EB000FFF76CBB2DE9F0410446FFF7D3F9304B07
:104EC000304E1A68304F01321A603568002D4BD1D0
:104ED00034601B68012B1FD1B84640460135FFF7EF
:104EE00015F9382D08F11408F7D1DFF8C480274DE3
:104EF0004046FFF70BF92846FFF708F92448FFF76B
:104F000005F92448FFF702F92348FFF7FFF8234B80
:104F1000C3F80080224B1D60224A136801331360DE
:104F2000214A63641168E36A14208B4200FB03701A
:104F300004F1040188BF1360FFF7F6F8FFF7B2F938
:104F40001A4B1B6873B13368DA6AE36A9A4209D272
:104F50004FF0E0234FF08052C3F8042DBFF34F8F82
:104F6000BFF36F8FBDE8F081104B1A68E36A002A27
:104F7000D2D13268D26A9A4298BF3460CCE700BF7F
:104F8000688B00203C900020DC8B0020B48B00203C
:104F9000988B0020848B00206C8B0020B08B00202D
:104FA000AC8B00204C8B0020608B00205C8B0020A1
:104FB000C88B0020F8B5154B154D1C6806462868AF
:104FC00004300F46FFF7D2F8731C07D137B12968B8
:104FD0001048BDE8F8400431FFF7A6B82B68A419C3
:104FE0005C6007D30C4B18682968BDE8F8400431B1
:104FF000FFF7A5B8094B186829680431FFF79FF837
:10500000074B1A68A24288BF1C60F8BD648B002061
:105010003C9000206C8B0020AC8B0020B08B0020DB
:10502000488B0020064A13681968064B19B94FF0DF
:10503000FF321A6070471268D268D2685268F8E787
:10504000B08B0020488B002010B590F85D300446EE
:105050003BB9006BFFF71CF82046BDE81040FFF796
:1050600017B8012BF9D0022B08D04FF0500383F36F
:105070001188BFF36F8FBFF34F8FFEE710BD0000A5
:1050800080B5144C144F154D236883B9144B1B681D
:10509000012B09D94FF0E0234FF08052C3F8042DC3
:1050A000BFF34F8FBFF36F8FFBF74EFFEBE7FFF7B9
:1050B000D9F8FB68DE68301DFFF758F82B68013B14
:1050C0002B602368013B2360FFF7ECF83046FFF7C5
:1050D000BBFFD9E7808B0020848B0020688B0020E9
:1050E000DC8B00202DE9F047DDE90994960032467B
:1050F00007460D46206BA521984606F02CFA236B37
:10510000043E1E4426F00706B5B36B1E04F13302BD
:105110000F3513F8011F02F8011F09B1AB42F8D196
:10512000002384F84330089D372D28BF37254FF0E2
:10513000000AE562E564201DC4F850A0FEF7F1FF07
:10514000C5F1380504F11800FEF7EBFFC4F858A0CC
:105150002461A5616462C4F854A084F85CA042464E
:1051600039463046FFF750F82060B9F1000F01D002
:10517000C9F80040BDE8F08784F83450D3E770B533
:1051800086B0DDE90B5445B94FF0500383F3118825
:10519000BFF36F8FBFF34F8FFEE744B94FF050035B
:1051A00083F31188BFF36F8FBFF34F8FFEE7602645
:1051B0000596059E602E08D04FF0500383F31188AA
:1051C000BFF36F8FBFF34F8FFEE72563022584F88F
:1051D0005D5004AD01950A9D02940095059EFFF770
:1051E00081FF2046FFF766FE049806B070BD2DE9EA
:1051F000F043074685B09000884616469946FEF76C
:10520000AFFE054620B94FF0FF3005B0BDE8F08392
:105210006020FEF7A5FE044698B1002380F85D30BB
:105220000D9B056301930C9B0290009332464B4605
:1052300041463846FFF756FF2046FFF73BFE012068
:10524000E3E72846FEF724FFDDE70000024A136883
:1052500001331360704700BF448B0020014B186876
:10526000704700BF648B00203F4B1B682DE9F74F50
:10527000002B72D13D4B1C6801341C60BCB93C4B07
:105280001A68126842B14FF0500383F31188BFF3DC
:105290006F8FBFF34F8FFEE7364A196810681860AA
:1052A0001160354A136801331360FFF7BBFE334DBD
:1052B000334E2B68334F9C424FF0000B12D23A68AA
:1052C000D26A14214A43B258022A2F4A126828BFD0
:1052D0004FF0010B002A18BF4FF0010B584603B0E6
:1052E000BDE8F08FDFF88890DFF8A4A0D9F800209F
:1052F00012681AB94FF0FF322A60E0E7D9F80020AF
:10530000D268D2F80C80D8F804108C4201D22960FF
:10531000D5E708F1040318460193FEF727FFD8F8F4
:10532000281019B108F11800FEF720FFD8F82C005A
:10533000DAF800101423884288BFCAF800000199E7
:1053400003FB0060FEF7F0FE3868D8F82C10C26A44
:10535000914228BF4FF0010BC8E70C4A1368013394
:1053600013604FF0000BB9E7448B0020648B0020E2
:10537000B08B0020AC8B0020508B0020488B00208D
:10538000DC8B00203C900020548B0020588B0020A8
:10539000608B00202DE9F041304C236843B94FF079
:1053A000500383F31188BFF36F8FBFF34F8FFEE776
:1053B000FEF758FF2368013B236024682CB10024CA
:1053C000FEF770FF2046BDE8F081254B1B68002BDF
:1053D000F5D0244D244EDFF8A0801DE0EB68DC689A
:1053E000271D04F11800FEF7C1FE3846FEF7BEFE89
:1053F000E36A32681420934200FB0380394688BF79
:105400003360FEF791FE194BE26A1B68DB6A9A4231
:1054100002D3174B01221A602B68002BDED10CB18E
:10542000FFF700FE134D2C6844B1114E0127FFF722
:105430001BFF00B13760013CF9D12C600C4B1B689D
:10544000002BBCD04FF0E0234FF08052C3F8042D66
:10545000BFF34F8FBFF36F8F0124B1E7448B002060
:10546000688B0020988B0020608B00203C900020EF
:10547000548B0020588B0020DC8B002008B550B9DD
:105480004FF0E0234FF08052C3F8042DBFF34F8F4D
:10549000BFF36F8F08BD0A4B196841B14FF050033D
:1054A00083F31188BFF36F8FBFF34F8FFEE7FFF7D2
:1054B000CDFEFFF77FFDFFF76DFF0028E0D0E9E7A5
:1054C000448B002038B50D46044608B9044B1C68CF
:1054D000FEF7C8FE6565BDE83840FEF7E3BE00BFD5
:1054E0003C900020034608460BB9034B1B685B6DDC
:1054F00003B11847184670473C90002010B588B09B
:10550000002407AA06A905A8CDE90544FEF7EAFC90
:10551000059B0293069B079A19491A48CDE9004357
:105520002346FFF72CFE40B300F07CFA012819D186
:105530004FF0500383F31188BFF36F8FBFF34F8F8A
:10554000114B4FF0FF321A60104B1860104B1C606B
:10555000104B21461868FFF7C5FF08B0BDE81040A2
:10556000FEF710BF013008D14FF0500383F31188CC
:10557000BFF36F8FBFF34F8FFEE708B010BD00BFC2
:10558000D7C7000881500008488B00205C8B0020A2
:10559000648B00203C900020F8B51C4B1A681C4B13
:1055A00012B101221A60F8BD1A4C1A601A4E206816
:1055B0000121FFF797FF32681849142707FB02F310
:1055C000C818CD58ADB1456808336D6845600B44C7
:1055D0009D4204BF6B684360142303FB02114B68B8
:1055E000DB682360326020680021BDE8F840FFF7E7
:1055F00079BF42B94FF0500383F31188BFF36F8F27
:10560000BFF34F8FFEE7013AD8E700BF448B00207D
:10561000548B00203C900020608B0020DC8B00200D
:1056200010B50C4640B94FF0500383F31188BFF317
:105630006F8FBFF34F8FFEE7054B19681831FEF7E8
:105640007EFD20460121BDE81040FFF7B3BC00BF3E
:105650003C90002038B50D46144640B94FF0500339
:1056600083F31188BFF36F8FBFF34F8FFEE7074BB4
:1056700019681831FEF758FD002C21460CBF28464A
:105680004FF0FF30BDE83840FFF794BC3C9000205D
:1056900038B5C368DC6844B94FF0500383F3118810
:1056A000BFF36F8FBFF34F8FFEE704F11805284655
:1056B000FEF75CFD104B1B68DBB9251D2846FEF785
:1056C00055FD0E4AE36A11688B4288BF13600C4A8D
:1056D0001420294600FB0320FEF726FD094BE26A51
:1056E0001B68DB6A9A4283BF074B012018600020C9
:1056F00038BD06482946EFE7448B0020608B002028
:10570000DC8B00203C900020548B0020988B0020E4
:10571000034B1B680360034B1B684360704700BF6B
:10572000508B0020648B002070B50C46054640B9B4
:105730004FF0500383F31188BFF36F8FBFF34F8F88
:10574000FEE741B94FF0500383F31188BFF36F8F29
:10575000BFF34F8FFEE7FEF785FD0F4B19682368F7
:105760005A1C10D00D482E6800686A68864201D025
:105770008A420FD9881A83420AD95B1A13442360DC
:105780002846FFF7C5FF0024FEF78CFD204670BDBC
:10579000002323600124F7E7648B0020508B002056
:1057A000014B01221A607047548B0020054B1B6887
:1057B00033B1054B1868B0FA80F0400940007047DB
:1057C000012070475C8B0020448B0020F8B5044614
:1057D00038B31A4DC36A2A68D26A934226D28269C4
:1057E000174E002AA1BF2A68D26AC2F1380282612C
:1057F000142202FB036342699A4213D1071D384603
:10580000FEF7B4FC2B680F4ADB6A1168E3621420D0
:105810008B4200FB0360394688BF1360FEF784FCAF
:105820000120F8BD2B68DB6AC362F9E72B68C06C06
:10583000DB6A98422CBF00200120F2E73C90002058
:10584000DC8B0020608B002038B508B9002038BD03
:105850001B4B1C68844208D04FF0500383F311881F
:10586000BFF36F8FBFF34F8FFEE7236D43B94FF048
:10587000500383F31188BFF36F8FBFF34F8FFEE7A1
:10588000E16AE26C013B91422365DFD0002BDDD160
:10589000251D2846FEF76AFCE36CE362C3F138027B
:1058A000A261084A11688B4288BF1360064A14201F
:1058B00000FB03202946FEF737FC0120C7E700BFA5
:1058C0003C900020608B0020DC8B002070B50446EB
:1058D000002841D0026D42B94FF0500383F3118884
:1058E000BFF36F8FBFF34F8FFEE7C36C994238BF92
:1058F0001946C36A8B422FD0012A2DD1174A12684C
:10590000824208D14FF0500383F31188BFF36F8FA9
:10591000BFF34F8FFEE78269114DC162002A4FF03D
:10592000140202FB03534269A4BFC1F13801816133
:105930009A4211D1061D3046FEF718FC094AE36A67
:10594000116814208B4200FB03503146BDE87040C3
:1059500088BF1360FEF7E8BB70BD00BF3C9000201D
:10596000DC8B0020608B0020044B1A681AB1196888
:105970000A6D01320A651868704700BF3C9000202C
:10598000914208B5416000610AD8D21A83699A42EF
:105990000DD2084B011D1868FEF7D1FB002008BD91
:1059A0009A4201D2994202D2034B011DF3E7012032
:1059B000F5E700BF3C91002040910020F7B5114C65
:1059C000FEF750FC2568BDB90F4F104E3846FEF764
:1059D0009DFB3046FEF79AFB0D4B0E4A1F600E4BA7
:1059E00010211E600A200D4B0095FEF744FE20603A
:1059F00010B10B49FFF7FCF903B0BDE8F040FEF72A
:105A000051BC00BF389100205891002044910020E3
:105A100040910020909000203C9100204090002078
:105A2000DCC7000810B588B0FFF7C8FF124B1B6831
:105A3000B3B1002407AA06A905A8CDE90544FEF7DD
:105A40005DFA059B0293069B019302230093079A3C
:105A50000A490B482346FFF792FB0A4B186040B9EE
:105A60004FF0500383F31188BFF36F8FBFF34F8F55
:105A7000FEE7012008B010BD38910020E1C7000802
:105A8000855B0008349100207FB5164604461A460F
:105A900040B94FF0500383F31188BFF36F8FBFF30A
:105AA0004F8FFEE70D4D286880B10529CDE900161E
:105AB00002940DDCFFF77AFE0023022808BF089A43
:105AC000286818BF1A466946FEF78AFE04B070BD02
:105AD00000236946FEF736FFF8E700BF3891002043
